:100000000C9434000C9451000C9451000C94510049
:100010000C9451000C9451000C9451000C9451001C
:100020000C9451000C9451000C9451000C9451000C
:100030000C9451000C9451000C9451000C945100FC
:100040000C9451000C9451000C9451000C945100EC
:100050000C9451000C9451000C9451000C945100DC
:100060000C9451000C94510011241FBECFEFD8E026
:10007000DEBFCDBF11E0A0E0B1E0ECEDF9E002C0E1
:1000800005900D92AA32B107D9F721E0AAE2B1E0BA
:1000900001C01D92A133B207E1F70E9412020C9435
:1000A000EC040C94000054985C9A2198299A209AA8
:1000B000259A249A579A559A5698569A229A23988E
:1000C000239A539A52985B98289A2D9A2C9A5F9A61
:1000D0005D985E982A9A2A982B980895539A0895C5
:1000E0005B9A80E58A95F1F75B980895A0E0B0E00F
:1000F000CD014A991EC00196A11DB11D803C27E289
:10010000920729E0A207B105A1F78FEF9FEF0895AD
:100110002091840030918500C901A0E0B0E01092E8
:10012000810021363A4E20F5B695A795979587958B
:1001300008951092800082E08093810010928500E3
:1001400010928400A0E0B0E0CD014A9BE1CF209165
:1001500084003091850021363A4ED0F60196A11DDB
:10016000B11D803C27E2920729E0A207B10569F79B
:100170008EEF9FEF08955B9A85E38A95F1F7000073
:100180005B9808955D985E982A982B9808955D98DD
:100190005E9A2A9A2B9808955D9A5E982A982B9ACF
:1001A00008955D9A5E982A9A2B9808955D985E9AB4
:1001B0002A982B9A0895CF93DF93CDB7DEB72A976D
:1001C0000FB6F894DEBF0FBECDBF1092850010921F
:1001D00084001092300110922F0110922A01B59ADA
:1001E000B09A0E94BB0060912F0170913001209164
:1001F0008400309185002D833E83CB0170E060E068
:100200000E94BC0320E030E040E05FE30E944A042B
:1002100069837A838B839C834D815E81BA0180E000
:1002200090E00E94BC0320E030E040E05FE30E94E9
:100230004A049B01AC0169817A818B819C810E9477
:10024000AF020E948D0369837A838B839C838091A4
:100250002A01823091F520912B0130912C0180915F
:100260002D0190912E012817390708F47CC0609168
:100270002B0170912C0180912D0190912E01681B12
:10028000790B80E090E00E94BC0320E030E040E089
:100290005FE30E944A0420E030E048E652E40E9416
:1002A0001B030E948D03CB012A960FB6F894DEBF84
:1002B0000FBECDBFDF91CF91089580912F01909116
:1002C0003001029778F480912F01909130010197CD
:1002D00009F0BDCF809184009091850081319742D3
:1002E00008F4B5CF60912F017091300180918400A6
:1002F0009091850089879A87CB0170E060E00E9429
:10030000BC0320E030E040E05FE30E944A046D83DC
:100310007E838F83988729853A85B90180E090E0B4
:100320000E94BC0320E030E040E05FE30E944A040A
:100330009B01AC016D817E818F8198850E94AF0207
:100340000E948D0329813A814B815C81621B730B72
:10035000840B950B6135734C8105910508F477CFBB
:100360008FEF9FEFA1CF60912F01709130014091ED
:100370002B0150912C0120912D0130912E01CB01A8
:10038000BA01621B730B810991097DCF9091C00066
:1003900095FFFCCF8093C60008959093C50080938D
:1003A000C40088E08093C10086E08093C200089575
:1003B000CF93DF93EC018881811108C08AE00E940D
:1003C000C6018DE0DF91CF910C94C60121960E9469
:1003D000C601F1CFFC018081811101C008953196E1
:1003E0009091C00095FFFCCF8093C600F4CFFC0134
:1003F000808181110FC08091C00085FFFCCF8DE00E
:100400008093C6008091C00085FFFCCF8AE0809376
:10041000C600089531969091C00095FFFCCF80935F
:10042000C600E6CF00D000D000D0CDB7DEB70E9426
:1004300053000E946E0087E690E00E94CD01789400
:1004400080E091E00E94F701F9B0F4FAFF24F4F89B
:1004500003B10270EE24E39485B18E2585B98FE156
:100460009EE40197F1F700C0000085B18E2585B9A3
:100470008FE19EE40197F1F700C000000E94700038
:100480000E947600BC0180E090E00E94BC0326E957
:1004900033E44BE05DE30E944A0420E030E040E0BA
:1004A0005FE30E944A040E948D03CB016B016F3F02
:1004B0007F4FE9F480E191E00E94F7015F9A89B1F2
:1004C0008071D82E13B112704C9B35C0199B33C06C
:1004D0000E94D100FD1421F085B190E2892785B9F1
:1004E000011731F185B120E1822785B921C04AE0A9
:1004F000BE016F5F7F4F0E94B7048EE191E00E94C2
:10050000EA01CE0101960E94EA0185E291E00E9493
:10051000F70180E1C816D10488F60E94C2005F98F6
:100520008FE99FE00197F1F700C00000102FDF2C4A
:10053000012FFD2C91CF4C9905C0199B03C00E943F
:10054000CC00C8CF4C9B05C0199903C00E94C700BE
:10055000C1CF4C99BFCF1999BDCFBACF5058BB2747
:10056000AA270E94C6020C9410040E94020438F0CC
:100570000E94090420F039F49F3F19F426F40C94EA
:10058000FF030EF4E095E7FB0C94F903E92F0E94BA
:10059000210458F3BA17620773078407950720F000
:1005A00079F4A6F50C9443040EF4E0950B2EBA2FC3
:1005B000A02D0B01B90190010C01CA01A001112469
:1005C000FF27591B99F0593F50F4503E68F11A1615
:1005D000F040A22F232F342F4427585FF3CF4695A6
:1005E00037952795A795F0405395C9F77EF41F16C8
:1005F000BA0B620B730B840BBAF09150A1F0FF0F92
:10060000BB1F661F771F881FC2F70EC0BA0F621F7D
:10061000731F841F48F4879577956795B795F7956D
:100620009E3F08F0B0CF9395880F08F09927EE0F02
:100630009795879508950E942F030C9410040E94AB
:10064000090458F00E94020440F029F45F3F29F0A9
:100650000C94F90351110C9444040C94FF030E9470
:10066000210468F39923B1F3552391F3951B550B9E
:10067000BB27AA2762177307840738F09F5F5F4F75
:10068000220F331F441FAA1FA9F335D00E2E3AF0B4
:10069000E0E832D091505040E695001CCAF72BD0CC
:1006A000FE2F29D0660F771F881FBB1F261737071D
:1006B0004807AB07B0E809F0BB0B802DBF01FF274F
:1006C00093585F4F3AF09E3F510578F00C94F90330
:1006D0000C9444045F3FE4F3983ED4F386957795F9
:1006E0006795B795F7959F5FC9F7880F911D969508
:1006F000879597F90895E1E0660F771F881FBB1F64
:10070000621773078407BA0720F0621B730B840B10
:10071000BA0BEE1F88F7E09508950E94290488F02F
:100720009F5798F0B92F9927B751B0F0E1F0660FB5
:10073000771F881F991F1AF0BA95C9F714C0B130F6
:1007400091F00E944304B1E008950C944304672F94
:10075000782F8827B85F39F0B93FCCF38695779525
:100760006795B395D9F73EF490958095709561950E
:100770007F4F8F4F9F4F0895E89409C097FB3EF439
:1007800090958095709561957F4F8F4F9F4F9923DE
:10079000A9F0F92F96E9BB279395F695879577955C
:1007A0006795B795F111F8CFFAF4BB0F11F460FF1C
:1007B0001BC06F5F7F4F8F4F9F4F16C0882311F074
:1007C00096E911C0772321F09EE8872F762F05C088
:1007D000662371F096E8862F70E060E02AF09A9523
:1007E000660F771F881FDAF7880F9695879597F918
:1007F000089597F99F6780E870E060E008959FEFA3
:1008000080EC089500240A941616170618060906A7
:10081000089500240A941216130614060506089576
:10082000092E0394000C11F4882352F0BB0F40F4FE
:10083000BF2B11F460FF04C06F5F7F4F8F4F9F4F3E
:10084000089557FD9058440F551F59F05F3F71F0C0
:100850004795880F97FB991F61F09F3F79F0879527
:100860000895121613061406551FF2CF4695F1DFB0
:1008700008C0161617061806991FF1CF8695710540
:10088000610508940895E894BB2766277727CB0174
:1008900097F908950E945D040C9410040E940204CC
:1008A00038F00E94090420F0952311F00C94F9030C
:1008B0000C94FF0311240C9444040E94210470F34F
:1008C000959FC1F3950F50E0551F629FF001729FF5
:1008D000BB27F00DB11D639FAA27F00DB11DAA1F04
:1008E000649F6627B00DA11D661F829F2227B00D51
:1008F000A11D621F739FB00DA11D621F839FA00DDC
:10090000611D221F749F3327A00D611D231F849F2B
:10091000600D211D822F762F6A2F11249F57504082
:100920009AF0F1F088234AF0EE0FFF1FBB1F661FFD
:10093000771F881F91505040A9F79E3F510580F0C6
:100940000C94F9030C9444045F3FE4F3983ED4F311
:10095000869577956795B795F795E7959F5FC1F76A
:10096000FE2B880F911D9695879597F90895BB27C3
:100970004A3031F4992322F4BDE2909581959F4F3E
:100980000C94C304BB27FB015527AA27880F991F86
:10099000AA1FA41710F0A41B83955051B9F7A05DAE
:1009A000AA3308F0A95DA193009779F7B111B1932B
:1009B0001192CB010C94DC04DC01FC01672F7191D6
:1009C0007723E1F7329704C07C916D937083629135
:0C09D000AE17BF07C8F30895F894FFCFDE
:1009DC0053797374656D205374617274656421006E
:1009EC00446973743A2054696D656F757400446979
:0A09FC0073743A200020636D0000C0
:00000001FF
