:100000000C9434000C9451000C9451000C94510049
:100010000C9451000C9451000C9451000C9451001C
:100020000C9451000C9451000C9451000C9451000C
:100030000C9451000C9451000C9451000C945100FC
:100040000C9473000C9451000C9451000C945100CA
:100050000C9451000C9451000C9451000C945100DC
:100060000C9451000C94510011241FBECFEFD8E026
:10007000DEBFCDBF11E0A0E0B1E0E6E7F5E002C0F1
:1000800005900D92A630B107D9F721E0A6E0B1E0C6
:1000900001C01D92A031B207E1F70E9485010C94C6
:1000A000B9020C9400008BB180658BB98BB18F7550
:1000B0008BB908958BB1806A8BB98BB18F7A8BB96C
:1000C00008958BB18F708BB908958BB180698BB90E
:1000D0008BB18F798BB908958BB180668BB98BB159
:1000E0008F768BB908951F921FB61F9211248F939C
:1000F0009F93AF93BF9380910C0190910D01A091BC
:100100000E01B0910F010196A11DB11D80930C014C
:1001100090930D01A0930E01B0930F0180910B01FC
:10012000885E80930B0180910B01BF91AF919F91ED
:100130008F911F901FBE1F90189514BC15BC85B5DC
:10014000826085BD85B5816085BDEEE6F0E0808189
:10015000816080837894089587B18C7F87B988B156
:10016000836088B98AB1806F8AB9219A2298259ACA
:100170000E9461000C949D00F89460910C017091B4
:100180000D0180910E0190910F0178940895EF92E6
:10019000FF920F931F930E94BC00209107013091A2
:1001A00008014091090150910A017B018C01E21A7A
:1001B000F30A040B150B9701A8012A3F31054105ED
:1001C000510580F060930701709308018093090145
:1001D00090930A0180910601811109C081E080930A
:1001E00006012D9A1F910F91FF90EF9008951092A4
:1001F00006012D98F7CF219A22980895A0E0B0E04B
:10020000CD011A991EC00196A11DB11D803C27E2A7
:10021000920729E0A207B105A1F78FEF9FEF08959C
:100220002091840030918500C901A0E0B0E01092D7
:10023000810021363A4E20F5B695A795979587957A
:1002400008951092800082E08093810010928500D2
:1002500010928400A0E0B0E0CD011A9BE1CF209184
:1002600084003091850021363A4ED0F60196A11DCA
:10027000B11D803C27E2920729E0A207B10569F78A
:100280008EEF9FEF0895299A85E38A95F1F7000094
:10029000299808951092850010928400B59AB09A1A
:1002A0000E9443010E94FE00BC0180E090E00E9499
:1002B0002D0220E030E048E652E40E948A010E94CC
:1002C000FC01CB0108950E94C7000E944A010197DA
:1002D0000F9748F40E9461008FE39CE90197F1F7C2
:1002E00000C00000089596B186B1827090FF05C0ED
:1002F000811541F00E945300EFCF811559F30E9400
:100300006C00EACF0E946500E7CF0E94AC000E941B
:100310006301FDCF0E949E010C947F020E9478022F
:1003200058F00E94710240F029F45F3F29F00C94CC
:10033000680251110C94B3020C946E020E94900258
:1003400068F39923B1F3552391F3951B550BBB2704
:10035000AA2762177307840738F09F5F5F4F220F49
:10036000331F441FAA1FA9F335D00E2E3AF0E0E840
:1003700032D091505040E695001CCAF72BD0FE2F8A
:1003800029D0660F771F881FBB1F2617370748071E
:10039000AB07B0E809F0BB0B802DBF01FF279358D6
:1003A0005F4F3AF09E3F510578F00C9468020C9430
:1003B000B3025F3FE4F3983ED4F386957795679553
:1003C000B795F7959F5FC9F7880F911D969587950B
:1003D00097F90895E1E0660F771F881FBB1F62172A
:1003E00073078407BA0720F0621B730B840BBA0BE8
:1003F000EE1F88F7E09508950E94980288F09F57B5
:1004000098F0B92F9927B751B0F0E1F0660F771F38
:10041000881F991F1AF0BA95C9F714C0B13091F02E
:100420000E94B202B1E008950C94B202672F782FB7
:100430008827B85F39F0B93FCCF3869577956795F3
:10044000B395D9F73EF490958095709561957F4F5F
:100450008F4F9F4F0895E89409C097FB3EF4909505
:100460008095709561957F4F8F4F9F4F9923A9F08D
:10047000F92F96E9BB279395F6958795779567951C
:10048000B795F111F8CFFAF4BB0F11F460FF1BC060
:100490006F5F7F4F8F4F9F4F16C0882311F096E9F3
:1004A00011C0772321F09EE8872F762F05C06623A1
:1004B00071F096E8862F70E060E02AF09A95660F5A
:1004C000771F881FDAF7880F9695879597F9089513
:1004D00097F99F6780E870E060E008959FEF80ECF7
:1004E000089500240A94161617061806090608959A
:1004F00000240A9412161306140605060895092E00
:100500000394000C11F4882352F0BB0F40F4BF2B6E
:1005100011F460FF04C06F5F7F4F8F4F9F4F0895AE
:1005200057FD9058440F551F59F05F3F71F04795A4
:10053000880F97FB991F61F09F3F79F08795089589
:10054000121613061406551FF2CF4695F1DF08C0A8
:10055000161617061806991FF1CF869571056105C5
:1005600008940895E894BB2766277727CB0197F96D
:060570000895F894FFCF8E
:06057600C800FA000000BD
:00000001FF
