:100000000C9434000C9451000C9451000C94510049
:100010000C9451000C9451000C9451000C9451001C
:100020000C9451000C9451000C9451000C9451000C
:100030000C9451000C9451000C9451000C945100FC
:100040000C940E030C9451000C9451000C9451002C
:100050000C9451000C9451000C9451000C945100DC
:100060000C9451000C94510011241FBECFEFD8E026
:10007000DEBFCDBF11E0A0E0B1E0E6E3F7E002C0F3
:1000800005900D92A233B107D9F721E0A2E3B1E0C8
:1000900001C01D92A734B207E1F70E944F030C94F0
:1000A00099030C9400000E943803259A249A539ACD
:1000B000549A559A569A579A20982398229821989C
:1000C000289A2B9A2A9A299A2C9A2D985C985B98B0
:1000D0005D985E985F9810923D0108954F925F92EF
:1000E0006F927F928F929F92AF92BF92CF92DF9248
:1000F000EF92FF920F931F93CF93DF93CDB7DEB7AD
:1001000065970FB6F894DEBF0FBECDBF86E0EEE078
:10011000F1E0DE01199601900D928A95E1F7809148
:10012000280190912901A0912A018B8B9C8BAD8B8A
:1001300088E0E4E1F1E09E012F5F3F4FD90101909B
:100140000D928A95E1F780911C0190911D01A0917B
:100150001E01B0911F018F87988BA98BBA8BFE016E
:1001600039962E0143E1440E511C82017F0180E04B
:1001700090E049015C01A394D7014D915D91DA01B2
:100180006C91D8012C91D50101C0AA0F2A95EAF7EC
:100190002A2F20952623DA012C939201AF01712C8E
:1001A000781681F0DA01CD90DD90D6016C90D901FE
:1001B0006C91D50101C0AA0F6A95EAF76A2F6629EA
:1001C000D6016C9373944E5F5F4F2F5F3F4FB3E048
:1001D0007B12E6CFAFE3BCE91197F1F700C0000056
:1001E000A4016E01BFE0CB0ED11C20E030E0DA01AB
:1001F0006D917D91DB016C9170E0D6017C9002C025
:10020000759567957A94E2F760FD3BC07F01B6E093
:10021000EB0EF11C71E0C72ED12C01911191D80188
:100220004C91D2016D912D01D60101C0AA0F6A95A2
:10023000EAF74A2BD8014C93EE15FF0571F7A90197
:10024000440F551F240F351F20503F4F820F931F1F
:10025000FC01808165960FB6F894DEBF0FBECDBF5E
:10026000DF91CF911F910F91FF90EF90DF90CF9092
:10027000BF90AF909F908F907F906F905F904F90C6
:1002800008954E5F5F4F6FEFC61AD60A2F5F3F4F3C
:100290002430310509F0ABCFA2E0EA0EF11C0F5F6C
:1002A0001F4F01968330910509F066CFBF016A5F49
:1002B0007F4F01E010E041915191DA018C91D20120
:1002C0002D912D01D80101C0AA0F2A95EAF78A2B9A
:1002D000DA018C93E617F70771F780E0BBCF5B98E4
:1002E00008958F929F92AF92BF92CF92DF92EF923A
:1002F000FF926A017B01009751F4FF90EF90DF902D
:10030000CF90BF90AF909F908F900C946F019C0105
:1003100040E050E060E271EA87E090E00E94540320
:1003200049015A01A8EEB3E09601A7010E947603A5
:100330009401A5010E94540369017A0171E4C71672
:1003400072E4D7067FE0E706F10438F080E4C82EB7
:1003500082E4D82E8FE0E82EF12CB401C5012AE00A
:1003600030E040E050E00E945403A0E0B0E0CD0156
:1003700068E08C159D05AE05BF0549F4FF90EF9030
:10038000DF90CF90BF90AF909F908F9008957BB1FA
:1003900076277BB9A12CB12C4501281539054A05D2
:1003A0005B0521F40196A11DB11DE3CF75E37A959C
:1003B000F1F700007FEF871A970AA70AB70AEDCF77
:1003C000CF92DF92EF92FF92CF930E9444036B0192
:1003D0007C01809137018115D1F080913801909195
:1003E0003901A0913A01B0913B019601A701281B68
:1003F000390B4A0B5B0BC901DA0188389341A1051F
:10040000B10528F02D985C98109237012C9A8091B4
:100410003201811531F18091330190913401A09125
:100420003501B09136019601A701281B390B4A0B03
:100430005B0BC901DA01883C9105A105B10588F083
:1004400085B190E2892785B9C0923301D0923401F9
:10045000E0923501F0923601809132018150809313
:1004600032010E946E00C82F811509F471C080917D
:10047000370181116DC048EC50E060E070E08DE222
:1004800098E00E947101C33209F080C0E0913C0104
:10049000F0E0E35CFE4F108260910C0170910D0161
:1004A0008DE391E00E949003892B09F057C05C9A7C
:1004B00081E080933701C0923801D0923901E092F7
:1004C0003A01F0923B012C982D9A86E080933201FC
:1004D000C0923301D0923401E0923501F09236019E
:1004E0002D9A44E650E060E070E08BE092E00E94DC
:1004F00071013FEF41EE54E0315040405040E1F790
:1005000000C0000044E650E060E070E080E193E06D
:100510000E9471018FEF91EE24E0815090402040C5
:10052000E1F700C0000044E650E060E070E087E1E1
:1005300094E00E9471013FEF41EE54E031504040A1
:100540005040E1F700C0000010923C0110923D01C4
:10055000CF91FF90EF90DF90CF90089544E650E068
:1005600060E070E087E994E00E9471018FEF91EE06
:1005700024E0815090402040E1F700C0000044E6B4
:1005800050E060E070E08BE492E0D3CFCA32C1F576
:1005900010923D0110923C0144E650E060E070E0B2
:1005A00087E194E00E9471018FEF91EE24E0815089
:1005B00090402040E1F700C0000044E650E060E0D9
:1005C00070E087E194E00E9471013FEF41EE54E05A
:1005D000315040405040E1F700C0000044E650E098
:1005E00060E070E087E194E00E9471018FEF91EE8E
:1005F00024E0815090402040E1F700C00000A8CFE7
:10060000E0913C01E43008F0A3CF81E08E0F8093AD
:100610003C01F0E0E35CFE4FC0839ACF1F921FB60F
:100620001F9211248F939F93AF93BF9380914301A7
:1006300090914401A0914501B09146010196A11D00
:10064000B11D8093430190934401A0934501B09361
:10065000460180914201885E80934201809142016F
:10066000BF91AF919F918F911F901FBE1F901895C2
:1006700014BC15BC85B5836085BDEEE6F0E08081D5
:100680008160808378940895F8946091430170911B
:1006900044018091450190914601789408950E940B
:1006A00053000E94E001FDCFA1E21A2EAA1BBB1B42
:1006B000FD010DC0AA1FBB1FEE1FFF1FA217B3072E
:1006C000E407F50720F0A21BB30BE40BF50B661F44
:1006D000771F881F991F1A9469F760957095809508
:1006E00090959B01AC01BD01CF0108950E9481034B
:1006F000A59F900DB49F900DA49F800D911D112476
:100700000895A29FB001B39FC001A39F700D811DEA
:100710001124911DB29F700D811D1124911D08950A
:10072000FB01DC018D91019080190110D9F3990B27
:060730000895F894FFCFCC
:100736003132333435363738392A30232C012B0001
:100746002B002B00230023002300230000030201BB
:10075600C80000008813000005060700303030305E
:02076600000091
:00000001FF
