:100000000C9434000C9451000C9451000C94510049
:100010000C9451000C9451000C9451000C9451001C
:100020000C9451000C9451000C9451000C9451000C
:100030000C9451000C9451000C9451000C945100FC
:100040000C94DC020C9451000C9451000C9451005F
:100050000C9451000C9451000C9451000C945100DC
:100060000C9451000C94510011241FBECFEFD8E026
:10007000DEBFCDBF11E0A0E0B1E0E2EDF6E002C0EE
:1000800005900D92AE32B107D9F721E0AEE2B1E0B2
:1000900001C01D92AE33B207E1F70E941D030C941C
:1000A00067030C9400000E940603259A249A539A31
:1000B000549A559A569A579A20982398229821989C
:1000C000289A2B9A2A9A299A2C9A2D985C985B98B0
:1000D0005D985E985F981092340108954F925F92F8
:1000E0006F927F928F929F92AF92BF92CF92DF9248
:1000F000EF92FF920F931F93CF93DF93CDB7DEB7AD
:1001000065970FB6F894DEBF0FBECDBF86E0EEE078
:10011000F1E0DE01199601900D928A95E1F7809148
:10012000240190912501A09126018B8B9C8BAD8B96
:1001300088E0E4E1F1E09E012F5F3F4FD90101909B
:100140000D928A95E1F780911C0190911D01A0917B
:100150001E01B0911F018F87988BA98BBA8BFE016E
:1001600039962E0143E1440E511C82017F0180E04B
:1001700090E049015C01A394D7014D915D91DA01B2
:100180006C91D8012C91D50101C0AA0F2A95EAF7EC
:100190002A2F20952623DA012C939201AF01712C8E
:1001A000781681F0DA01CD90DD90D6016C90D901FE
:1001B0006C91D50101C0AA0F6A95EAF76A2F6629EA
:1001C000D6016C9373944E5F5F4F2F5F3F4FB3E048
:1001D0007B12E6CFAFE3BCE91197F1F700C0000056
:1001E000A4016E01BFE0CB0ED11C20E030E0DA01AB
:1001F0006D917D91DB016C9170E0D6017C9002C025
:10020000759567957A94E2F760FD3BC07F01B6E093
:10021000EB0EF11C71E0C72ED12C01911191D80188
:100220004C91D2016D912D01D60101C0AA0F6A95A2
:10023000EAF74A2BD8014C93EE15FF0571F7A90197
:10024000440F551F240F351F20503F4F820F931F1F
:10025000FC01808165960FB6F894DEBF0FBECDBF5E
:10026000DF91CF911F910F91FF90EF90DF90CF9092
:10027000BF90AF909F908F907F906F905F904F90C6
:1002800008954E5F5F4F6FEFC61AD60A2F5F3F4F3C
:100290002430310509F0ABCFA2E0EA0EF11C0F5F6C
:1002A0001F4F01968330910509F066CFBF016A5F49
:1002B0007F4F01E010E041915191DA018C91D20120
:1002C0002D912D01D80101C0AA0F2A95EAF78A2B9A
:1002D000DA018C93E617F70771F780E0BBCF5B98E4
:1002E00008958F929F92AF92BF92CF92DF92EF923A
:1002F000FF926A017B01009751F4FF90EF90DF902D
:10030000CF90BF90AF909F908F900C946F019C0105
:1003100040E050E060E271EA87E090E00E94220352
:1003200049015A01A8EEB3E09601A7010E944403D7
:100330009401A5010E94220369017A0171E4C716A4
:1003400072E4D7067FE0E706F10438F080E4C82EB7
:1003500082E4D82E8FE0E82EF12CB401C5012AE00A
:1003600030E040E050E00E942203A0E0B0E0CD0188
:1003700068E08C159D05AE05BF0549F4FF90EF9030
:10038000DF90CF90BF90AF909F908F9008957BB1FA
:1003900076277BB9A12CB12C4501281539054A05D2
:1003A0005B0521F40196A11DB11DE3CF75E37A959C
:1003B000F1F700007FEF871A970AA70AB70AEDCF77
:1003C000CF92DF92EF92FF92CF930E9412036B01C4
:1003D0007C0180912E018115D1F080912F019091A7
:1003E0003001A0913101B09132019601A701281B83
:1003F000390B4A0B5B0BC901DA0188389341A1051F
:10040000B10528F02D985C9810922E012C9A0E942C
:100410006E00C82F811509F469C080912E018111E9
:1004200065C048EC50E060E070E08DE298E00E942A
:10043000710185B190E2892785B9C33209F074C092
:10044000E0913301F0E0EC5CFE4F108260910C0112
:1004500070910D0184E391E00E945E03892B09F005
:100460004BC05C9A81E080932E01C0922F01D09204
:100470003001E0923101F09232012C982D9A44E63D
:1004800050E060E070E08BE092E00E9471014FEF7D
:1004900051EE84E0415050408040E1F700C0000040
:1004A00044E650E060E070E080E193E00E9471017A
:1004B0009FEF21EE34E0915020403040E1F700C042
:1004C000000044E650E060E070E087E194E00E94C4
:1004D00071014FEF51EE84E0415050408040E1F710
:1004E00000C000001092330110923401CF91FF90B0
:1004F000EF90DF90CF90089544E650E060E070E028
:1005000087E994E00E9471019FEF21EE34E0915061
:1005100020403040E1F700C0000044E650E060E0D9
:1005200070E08BE492E0D3CFCA32C1F5109234016F
:100530001092330144E650E060E070E087E194E01F
:100540000E9471019FEF21EE34E091502040304035
:10055000E1F700C0000044E650E060E070E087E1B1
:1005600094E00E9471014FEF51EE84E04150504001
:100570008040E1F700C0000044E650E060E070E039
:1005800087E194E00E9471019FEF21EE34E09150E9
:1005900020403040E1F700C00000A8CFE0913301D7
:1005A000E43008F0A3CF81E08E0F80933301F0E0B8
:1005B000EC5CFE4FC0839ACF1F921FB61F9211248E
:1005C0008F939F93AF93BF9380913A0190913B019A
:1005D000A0913C01B0913D010196A11DB11D8093F8
:1005E0003A0190933B01A0933C01B0933D0180916F
:1005F0003901885E8093390180913901BF91AF91B3
:100600009F918F911F901FBE1F90189514BC15BC11
:1006100085B5836085BDEEE6F0E0808181608083F2
:1006200078940895F89460913A0170913B0180911B
:100630003C0190913D01789408950E9453000E94DE
:10064000E001FDCFA1E21A2EAA1BBB1BFD010DC0CC
:10065000AA1FBB1FEE1FFF1FA217B307E407F50772
:1006600020F0A21BB30BE40BF50B661F771F881F4E
:10067000991F1A9469F760957095809590959B01E4
:10068000AC01BD01CF0108950E944F03A59F900DBD
:10069000B49F900DA49F800D911D11240895A29FD9
:1006A000B001B39FC001A39F700D811D1124911D46
:1006B000B29F700D811D1124911D0895FB01DC0175
:1006C0008D91019080190110D9F3990B0895F89438
:0206D000FFCF5A
:1006D2003132333435363738392A302328012B006A
:1006E2002B002B0023002300230023000003020120
:0E06F20088130000050607003030303000008D
:00000001FF
